{
  "address": "0xc918821ff5C45140d4a68Dae883c25b9E828027B",
  "abi": [
    {
      "inputs": [
        {
          "internalType": "contract IVault",
          "name": "_vault",
          "type": "address"
        }
      ],
      "stateMutability": "nonpayable",
      "type": "constructor"
    },
    {
      "inputs": [
        {
          "internalType": "bytes32",
          "name": "poolId",
          "type": "bytes32"
        },
        {
          "internalType": "address",
          "name": "sender",
          "type": "address"
        },
        {
          "internalType": "address",
          "name": "recipient",
          "type": "address"
        },
        {
          "components": [
            {
              "internalType": "contract IAsset[]",
              "name": "assets",
              "type": "address[]"
            },
            {
              "internalType": "uint256[]",
              "name": "minAmountsOut",
              "type": "uint256[]"
            },
            {
              "internalType": "bytes",
              "name": "userData",
              "type": "bytes"
            },
            {
              "internalType": "bool",
              "name": "toInternalBalance",
              "type": "bool"
            }
          ],
          "internalType": "struct IVault.ExitPoolRequest",
          "name": "request",
          "type": "tuple"
        }
      ],
      "name": "queryExit",
      "outputs": [
        {
          "internalType": "uint256",
          "name": "bptIn",
          "type": "uint256"
        },
        {
          "internalType": "uint256[]",
          "name": "amountsOut",
          "type": "uint256[]"
        }
      ],
      "stateMutability": "view",
      "type": "function"
    },
    {
      "inputs": [
        {
          "internalType": "bytes32",
          "name": "poolId",
          "type": "bytes32"
        },
        {
          "internalType": "address",
          "name": "sender",
          "type": "address"
        },
        {
          "internalType": "address",
          "name": "recipient",
          "type": "address"
        },
        {
          "components": [
            {
              "internalType": "contract IAsset[]",
              "name": "assets",
              "type": "address[]"
            },
            {
              "internalType": "uint256[]",
              "name": "maxAmountsIn",
              "type": "uint256[]"
            },
            {
              "internalType": "bytes",
              "name": "userData",
              "type": "bytes"
            },
            {
              "internalType": "bool",
              "name": "fromInternalBalance",
              "type": "bool"
            }
          ],
          "internalType": "struct IVault.JoinPoolRequest",
          "name": "request",
          "type": "tuple"
        }
      ],
      "name": "queryJoin",
      "outputs": [
        {
          "internalType": "uint256",
          "name": "bptOut",
          "type": "uint256"
        },
        {
          "internalType": "uint256[]",
          "name": "amountsIn",
          "type": "uint256[]"
        }
      ],
      "stateMutability": "view",
      "type": "function"
    },
    {
      "inputs": [],
      "name": "vault",
      "outputs": [
        {
          "internalType": "contract IVault",
          "name": "",
          "type": "address"
        }
      ],
      "stateMutability": "view",
      "type": "function"
    }
  ],
  "transactionHash": "0x9131a1c25f41e761507800d08268b4ba73e12b5713be102a63670b31248770fa",
  "args": [
    "0x9B9D7498641BF2CDB48a20cfecd1478FdD65fbf7"
  ],
  "solcInputHash": "5035014888e0d589f263a9fe21d2103e",
  "bytecode": "0x60c060405234801561001057600080fd5b5060405161100f38038061100f83398101604081905261002f916100bf565b806001600160a01b031663ad5c46486040518163ffffffff1660e01b815260040160206040518083038186803b15801561006857600080fd5b505afa15801561007c573d6000803e3d6000fd5b505050506040513d601f19601f820116820180604052508101906100a091906100bf565b6001600160601b0319606091821b811660805291901b1660a0526100fa565b6000602082840312156100d0578081fd5b81516100db816100e2565b9392505050565b6001600160a01b03811681146100f757600080fd5b50565b60805160601c60a05160601c610ed461013b6000398060a0528061016352806103545280610417528061051e52806105905250806108585250610ed46000f3fe608060405234801561001057600080fd5b50600436106100415760003560e01c80639ebbf05d14610046578063c7b2c52c14610070578063fbfa77cf14610083575b600080fd5b610059610054366004610c5d565b610098565b604051610067929190610e11565b60405180910390f35b61005961007e366004610bf3565b61034c565b61008b61051c565b6040516100679190610df0565b6000606060007f000000000000000000000000000000000000000000000000000000000000000073ffffffffffffffffffffffffffffffffffffffff1663f6c00927886040518263ffffffff1660e01b81526004016100f79190610d2c565b604080518083038186803b15801561010e57600080fd5b505afa158015610122573d6000803e3d6000fd5b505050506040513d601f19601f820116820180604052508101906101469190610aeb565b5090506060600061015b898760000151610540565b9150915060007f000000000000000000000000000000000000000000000000000000000000000073ffffffffffffffffffffffffffffffffffffffff1663d2946c2b6040518163ffffffff1660e01b815260040160206040518083038186803b1580156101c757600080fd5b505afa1580156101db573d6000803e3d6000fd5b505050506040513d601f19601f820116820180604052508101906101ff9190610c72565b90508373ffffffffffffffffffffffffffffffffffffffff166387ec68178b8b8b87878773ffffffffffffffffffffffffffffffffffffffff166355c676286040518163ffffffff1660e01b815260040160206040518083038186803b15801561026857600080fd5b505afa15801561027c573d6000803e3d6000fd5b505050506040513d601f19601f820116820180604052508101906102a09190610c95565b8e604001516040518863ffffffff1660e01b81526004016102c79796959493929190610d35565b600060405180830381600087803b1580156102e157600080fd5b505af11580156102f5573d6000803e3d6000fd5b505050506040513d6000823e601f3d9081017fffffffffffffffffffffffffffffffffffffffffffffffffffffffffffffffe016820160405261033b9190810190610cad565b909b909a5098505050505050505050565b6000606060007f000000000000000000000000000000000000000000000000000000000000000073ffffffffffffffffffffffffffffffffffffffff1663f6c00927886040518263ffffffff1660e01b81526004016103ab9190610d2c565b604080518083038186803b1580156103c257600080fd5b505afa1580156103d6573d6000803e3d6000fd5b505050506040513d601f19601f820116820180604052508101906103fa9190610aeb565b5090506060600061040f898760000151610540565b9150915060007f000000000000000000000000000000000000000000000000000000000000000073ffffffffffffffffffffffffffffffffffffffff1663d2946c2b6040518163ffffffff1660e01b815260040160206040518083038186803b15801561047b57600080fd5b505afa15801561048f573d6000803e3d6000fd5b505050506040513d601f19601f820116820180604052508101906104b39190610c72565b90508373ffffffffffffffffffffffffffffffffffffffff16636028bfd48b8b8b87878773ffffffffffffffffffffffffffffffffffffffff166355c676286040518163ffffffff1660e01b815260040160206040518083038186803b15801561026857600080fd5b7f000000000000000000000000000000000000000000000000000000000000000081565b60606000606080610550856106d2565b6040517ff94d466800000000000000000000000000000000000000000000000000000000815290915073ffffffffffffffffffffffffffffffffffffffff7f0000000000000000000000000000000000000000000000000000000000000000169063f94d4668906105c5908990600401610d2c565b60006040518083038186803b1580156105dd57600080fd5b505afa1580156105f1573d6000803e3d6000fd5b505050506040513d6000823e601f3d9081017fffffffffffffffffffffffffffffffffffffffffffffffffffffffffffffffe01682016040526106379190810190610b27565b8251845192975090955091935061064e9190610782565b60005b82518110156106c857600083828151811061066857fe5b602002602001015190506106bf83838151811061068157fe5b602002602001015173ffffffffffffffffffffffffffffffffffffffff168273ffffffffffffffffffffffffffffffffffffffff1614610208610793565b50600101610651565b5050509250929050565b606080825167ffffffffffffffff811180156106ed57600080fd5b50604051908082528060200260200182016040528015610717578160200160208202803683370190505b50905060005b835181101561077b5761074284828151811061073557fe5b60200260200101516107a1565b82828151811061074e57fe5b73ffffffffffffffffffffffffffffffffffffffff9092166020928302919091019091015260010161071d565b5092915050565b61078f8183146067610793565b5050565b8161078f5761078f816107cc565b60006107ac82610839565b6107be576107b982610853565b6107c6565b6107c6610856565b92915050565b7f08c379a0000000000000000000000000000000000000000000000000000000006000908152602060045260076024526642414c23000030600a808404818106603090810160081b95839006959095019082900491820690940160101b939093010160c81b604452606490fd5b73ffffffffffffffffffffffffffffffffffffffff161590565b90565b7f000000000000000000000000000000000000000000000000000000000000000090565b600082601f83011261088a578081fd5b813561089d61089882610e59565b610e32565b8181529150602080830190848101818402860182018710156108be57600080fd5b60005b848110156108e65781356108d481610e79565b845292820192908201906001016108c1565b505050505092915050565b600082601f830112610901578081fd5b813561090f61089882610e59565b81815291506020808301908481018184028601820187101561093057600080fd5b60005b848110156108e657813584529282019290820190600101610933565b600082601f83011261095f578081fd5b815161096d61089882610e59565b81815291506020808301908481018184028601820187101561098e57600080fd5b60005b848110156108e657815184529282019290820190600101610991565b803580151581146107c657600080fd5b600082601f8301126109cd578081fd5b813567ffffffffffffffff8111156109e3578182fd5b610a1460207fffffffffffffffffffffffffffffffffffffffffffffffffffffffffffffffe0601f84011601610e32565b9150808252836020828501011115610a2b57600080fd5b8060208401602084013760009082016020015292915050565b600060808284031215610a55578081fd5b610a5f6080610e32565b9050813567ffffffffffffffff80821115610a7957600080fd5b610a858583860161087a565b83526020840135915080821115610a9b57600080fd5b610aa7858386016108f1565b60208401526040840135915080821115610ac057600080fd5b50610acd848285016109bd565b604083015250610ae083606084016109ad565b606082015292915050565b60008060408385031215610afd578182fd5b8251610b0881610e79565b602084015190925060038110610b1c578182fd5b809150509250929050565b600080600060608486031215610b3b578081fd5b835167ffffffffffffffff80821115610b52578283fd5b818601915086601f830112610b65578283fd5b8151610b7361089882610e59565b80828252602080830192508086018b828387028901011115610b93578788fd5b8796505b84871015610bbe578051610baa81610e79565b845260019690960195928101928101610b97565b508901519097509350505080821115610bd5578283fd5b50610be28682870161094f565b925050604084015190509250925092565b60008060008060808587031215610c08578081fd5b843593506020850135610c1a81610e79565b92506040850135610c2a81610e79565b9150606085013567ffffffffffffffff811115610c45578182fd5b610c5187828801610a44565b91505092959194509250565b60008060008060808587031215610c08578384fd5b600060208284031215610c83578081fd5b8151610c8e81610e79565b9392505050565b600060208284031215610ca6578081fd5b5051919050565b60008060408385031215610cbf578182fd5b82519150602083015167ffffffffffffffff811115610cdc578182fd5b610ce88582860161094f565b9150509250929050565b6000815180845260208085019450808401835b83811015610d2157815187529582019590820190600101610d05565b509495945050505050565b90815260200190565b6000888252602073ffffffffffffffffffffffffffffffffffffffff808a168285015280891660408501525060e06060840152610d7560e0840188610cf2565b8660808501528560a085015283810360c08501528451808252835b81811015610dab578681018401518382018501528301610d90565b81811115610dbb57848483850101525b50601f017fffffffffffffffffffffffffffffffffffffffffffffffffffffffffffffffe01601019998505050505050505050565b73ffffffffffffffffffffffffffffffffffffffff91909116815260200190565b600083825260406020830152610e2a6040830184610cf2565b949350505050565b60405181810167ffffffffffffffff81118282101715610e5157600080fd5b604052919050565b600067ffffffffffffffff821115610e6f578081fd5b5060209081020190565b73ffffffffffffffffffffffffffffffffffffffff81168114610e9b57600080fd5b5056fea26469706673582212204b3c40dc8d0458383b092ee57b550300d684c418b6da9654b0b188742963dbda64736f6c63430007010033",
  "devdoc": {
    "details": "This contract simply builds on top of the Balancer V2 architecture to provide useful helpers to users. It connects different functionalities of the protocol components to allow accessing information that would have required a more cumbersome setup if we wanted to provide these already built-in.",
    "kind": "dev",
    "methods": {},
    "version": 1
  },
  "userdoc": {
    "kind": "user",
    "methods": {},
    "version": 1
  },
  "storageLayout": {
    "storage": [],
    "types": null
  }
}