{
  "address": "0x6F3058042cfd27E7bcF408b036a05c0A7a4C5ce9",
  "abi": [
    {
      "inputs": [
        {
          "internalType": "contract IVault",
          "name": "vault",
          "type": "address"
        }
      ],
      "stateMutability": "nonpayable",
      "type": "constructor"
    },
    {
      "anonymous": false,
      "inputs": [
        {
          "indexed": true,
          "internalType": "address",
          "name": "pool",
          "type": "address"
        }
      ],
      "name": "PoolCreated",
      "type": "event"
    },
    {
      "inputs": [
        {
          "internalType": "string",
          "name": "name",
          "type": "string"
        },
        {
          "internalType": "string",
          "name": "symbol",
          "type": "string"
        },
        {
          "internalType": "contract IERC20[]",
          "name": "tokens",
          "type": "address[]"
        },
        {
          "internalType": "uint256",
          "name": "amplificationParameter",
          "type": "uint256"
        },
        {
          "internalType": "uint256",
          "name": "swapFeePercentage",
          "type": "uint256"
        },
        {
          "internalType": "address",
          "name": "owner",
          "type": "address"
        }
      ],
      "name": "create",
      "outputs": [
        {
          "internalType": "address",
          "name": "",
          "type": "address"
        }
      ],
      "stateMutability": "nonpayable",
      "type": "function"
    },
    {
      "inputs": [],
      "name": "getPauseConfiguration",
      "outputs": [
        {
          "internalType": "uint256",
          "name": "pauseWindowDuration",
          "type": "uint256"
        },
        {
          "internalType": "uint256",
          "name": "bufferPeriodDuration",
          "type": "uint256"
        }
      ],
      "stateMutability": "view",
      "type": "function"
    },
    {
      "inputs": [],
      "name": "getVault",
      "outputs": [
        {
          "internalType": "contract IVault",
          "name": "",
          "type": "address"
        }
      ],
      "stateMutability": "view",
      "type": "function"
    },
    {
      "inputs": [
        {
          "internalType": "address",
          "name": "pool",
          "type": "address"
        }
      ],
      "name": "isPoolFromFactory",
      "outputs": [
        {
          "internalType": "bool",
          "name": "",
          "type": "bool"
        }
      ],
      "stateMutability": "view",
      "type": "function"
    }
  ],
  "transactionHash": "0xd2251fefe826d76be403d1a657d636ee157d660cee0883907a634366c9909dad",
  "args": [
    "0x9B9D7498641BF2CDB48a20cfecd1478FdD65fbf7"
  ],
  "solcInputHash": "5035014888e0d589f263a9fe21d2103e",
  "bytecode": "0x60c060405234801561001057600080fd5b5060405161529638038061529683398101604081905261002f9161004d565b60601b6001600160601b0319166080526276a700420160a05261007b565b60006020828403121561005e578081fd5b81516001600160a01b0381168114610074578182fd5b9392505050565b60805160601c60a0516151f16100a56000398060d652806101005250806101ea52506151f16000f3fe60806040523480156200001157600080fd5b5060043610620000525760003560e01c80632da47c4014620000575780636634b753146200007a5780637932c7f314620000a05780638d928af814620000c6575b600080fd5b62000061620000d0565b60405162000071929190620005f4565b60405180910390f35b620000916200008b36600462000330565b6200013c565b60405162000071919062000522565b620000b7620000b136600462000356565b62000167565b60405162000071919062000501565b620000b7620001e8565b600080427f00000000000000000000000000000000000000000000000000000000000000008110156200012e57807f000000000000000000000000000000000000000000000000000000000000000003925062278d00915062000137565b60009250600091505b509091565b73ffffffffffffffffffffffffffffffffffffffff1660009081526020819052604090205460ff1690565b600080600062000176620000d0565b91509150600062000186620001e8565b8a8a8a8a8a88888c6040516200019c9062000283565b620001b0999897969594939291906200052d565b604051809103906000f080158015620001cd573d6000803e3d6000fd5b509050620001db816200020c565b9998505050505050505050565b7f000000000000000000000000000000000000000000000000000000000000000090565b73ffffffffffffffffffffffffffffffffffffffff811660008181526020819052604080822080547fffffffffffffffffffffffffffffffffffffffffffffffffffffffffffffff00166001179055517f83a48fbcfc991335314e74d0496aab6a1987e992ddc85dddbcc4d6dd6ef2e9fc9190a250565b614b52806200066a83390190565b80356200029e8162000643565b92915050565b600082601f830112620002b5578081fd5b813567ffffffffffffffff811115620002cc578182fd5b620002ff60207fffffffffffffffffffffffffffffffffffffffffffffffffffffffffffffffe0601f8401160162000602565b91508082528360208285010111156200031757600080fd5b8060208401602084013760009082016020015292915050565b60006020828403121562000342578081fd5b81356200034f8162000643565b9392505050565b60008060008060008060c087890312156200036f578182fd5b863567ffffffffffffffff8082111562000387578384fd5b620003958a838b01620002a4565b9750602091508189013581811115620003ac578485fd5b620003ba8b828c01620002a4565b975050604089013581811115620003cf578485fd5b8901601f81018b13620003e0578485fd5b803582811115620003ef578586fd5b83810292506200040184840162000602565b8181528481019083860185850187018f10156200041c578889fd5b8895505b838610156200044a57620004358f8262000291565b83526001959095019491860191860162000420565b509850505050606089013594505050608087013591506200046f8860a0890162000291565b90509295509295509295565b73ffffffffffffffffffffffffffffffffffffffff169052565b60008151808452815b81811015620004bc576020818501810151868301820152016200049e565b81811115620004ce5782602083870101525b50601f017fffffffffffffffffffffffffffffffffffffffffffffffffffffffffffffffe0169290920160200192915050565b73ffffffffffffffffffffffffffffffffffffffff91909116815260200190565b901515815260200190565b600061012073ffffffffffffffffffffffffffffffffffffffff8c16835260208181850152620005608285018d62000495565b9150838203604085015262000576828c62000495565b84810360608601528a51808252828c01935090820190845b81811015620005b657620005a385516200062a565b835293830193918301916001016200058e565b50508093505050508660808301528560a08301528460c08301528360e0830152620005e66101008301846200047b565b9a9950505050505050505050565b918252602082015260400190565b60405181810167ffffffffffffffff811182821017156200062257600080fd5b604052919050565b73ffffffffffffffffffffffffffffffffffffffff1690565b73ffffffffffffffffffffffffffffffffffffffff811681146200066657600080fd5b5056fe6104006040527f6e71edae12b1b97f4d1f60370fef10105fa2faae0126114a169c64845d6126c9610120523480156200003757600080fd5b5060405162004b5238038062004b528339810160408190526200005a9162000a9a565b6040805180820190915260018152603160f81b6020808301918252336080526001600160601b0319606085901b1660a0528a51908b0190812060c0529151902060e0527f8b73c3c69bb8fe3d512ecc4cf759cc79239f7b179b0ffacaa9a75d522b39400f6101005288518a918a918a918a91899189918991899189916000918a918a918a918a918a918a918a91849184918a918a91620000fe9160039190620008b8565b50805162000114906004906020840190620008b8565b506200012c9150506276a70083111561019462000689565b6200014062278d0082111561019562000689565b429091016101408190520161016052845162000162906002111560c862000689565b6200017a60088651111560c96200068960201b60201c565b62000190856200069e60201b62000daf1760201c565b6200019b84620006aa565b6040516309b2760f60e01b81526000906001600160a01b038b16906309b2760f90620001cc908c9060040162000c3d565b602060405180830381600087803b158015620001e757600080fd5b505af1158015620001fc573d6000803e3d6000fd5b505050506040513d601f19601f8201168201806040525081019062000222919062000a81565b9050896001600160a01b03166366a9c7d2828889516001600160401b03811180156200024d57600080fd5b5060405190808252806020026020018201604052801562000278578160200160208202803683370190505b506040518463ffffffff1660e01b8152600401620002999392919062000ba1565b600060405180830381600087803b158015620002b457600080fd5b505af1158015620002c9573d6000803e3d6000fd5b5050506001600160601b031960608c901b1661018052506101a081905285516101c0528551620002fb57600062000312565b856000815181106200030957fe5b60200260200101515b60601b6001600160601b0319166101e0528551600110620003355760006200034c565b856001815181106200034357fe5b60200260200101515b60601b6001600160601b0319166102005285516002106200036f57600062000386565b856002815181106200037d57fe5b60200260200101515b60601b6001600160601b031916610220528551600310620003a9576000620003c0565b85600381518110620003b757fe5b60200260200101515b60601b6001600160601b031916610240528551600410620003e3576000620003fa565b85600481518110620003f157fe5b60200260200101515b60601b6001600160601b0319166102605285516005106200041d57600062000434565b856005815181106200042b57fe5b60200260200101515b60601b6001600160601b031916610280528551600610620004575760006200046e565b856006815181106200046557fe5b60200260200101515b60601b6001600160601b0319166102a052855160071062000491576000620004a8565b856007815181106200049f57fe5b60200260200101515b60601b6001600160601b0319166102c0528551620004c8576000620004ee565b620004ee86600081518110620004da57fe5b60200260200101516200071960201b60201c565b6102e05285516001106200050457600062000516565b6200051686600181518110620004da57fe5b6103005285516002106200052c5760006200053e565b6200053e86600281518110620004da57fe5b6103205285516003106200055457600062000566565b6200056686600381518110620004da57fe5b6103405285516004106200057c5760006200058e565b6200058e86600481518110620004da57fe5b610360528551600510620005a4576000620005b6565b620005b686600581518110620004da57fe5b610380528551600610620005cc576000620005de565b620005de86600681518110620004da57fe5b6103a0528551600710620005f457600062000606565b6200060686600781518110620004da57fe5b6103c081815250505050505050505050505050505050505050506200063f670de0b6b3a764000086101561012c6200068960201b60201c565b6200065a69010f0cf064dd5920000086111561012d62000689565b6200067360058751111561012f6200068960201b60201c565b5050506103e0919091525062000ca49350505050565b816200069a576200069a81620007bb565b5050565b806200069a816200080e565b620006bf64e8d4a5100082101560cb62000689565b620006d767016345785d8a000082111560ca62000689565b60078190556040517fa9ba3ffe0b6c366b81232caab38605a0699ad5398d6cce76f91ee809e322dafc906200070e90839062000c52565b60405180910390a150565b600080826001600160a01b031663313ce5676040518163ffffffff1660e01b815260040160206040518083038186803b1580156200075657600080fd5b505afa1580156200076b573d6000803e3d6000fd5b505050506040513d601f19601f8201168201806040525081019062000791919062000b77565b60ff1690506000620007b06012836200089b60201b62000dbd1760201c565b600a0a949350505050565b62461bcd60e51b6000908152602060045260076024526642414c23000030600a808404818106603090810160081b95839006959095019082900491820690940160101b939093010160c81b604452606490fd5b6002815110156200081f5762000898565b6000816000815181106200082f57fe5b602002602001015190506000600190505b8251811015620008955760008382815181106200085957fe5b602002602001015190506200088a816001600160a01b0316846001600160a01b03161060656200068960201b60201c565b915060010162000840565b50505b50565b6000620008ad83831115600162000689565b508082035b92915050565b828054600181600116156101000203166002900490600052602060002090601f016020900481019282601f10620008fb57805160ff19168380011785556200092b565b828001600101855582156200092b579182015b828111156200092b5782518255916020019190600101906200090e565b50620009399291506200093d565b5090565b5b808211156200093957600081556001016200093e565b8051620008b28162000c8e565b600082601f83011262000972578081fd5b81516001600160401b0381111562000988578182fd5b60208082026200099a82820162000c5b565b83815293508184018583018287018401881015620009b757600080fd5b600092505b84831015620009e7578051620009d28162000c8e565b825260019290920191908301908301620009bc565b505050505092915050565b600082601f83011262000a03578081fd5b81516001600160401b0381111562000a19578182fd5b602062000a2f601f8301601f1916820162000c5b565b9250818352848183860101111562000a4657600080fd5b60005b8281101562000a6657848101820151848201830152810162000a49565b8281111562000a785760008284860101525b50505092915050565b60006020828403121562000a93578081fd5b5051919050565b60008060008060008060008060006101208a8c03121562000ab9578485fd5b62000ac58b8b62000954565b60208b01519099506001600160401b038082111562000ae2578687fd5b62000af08d838e01620009f2565b995060408c015191508082111562000b06578687fd5b62000b148d838e01620009f2565b985060608c015191508082111562000b2a578687fd5b5062000b398c828d0162000961565b96505060808a0151945060a08a0151935060c08a0151925060e08a0151915062000b688b6101008c0162000954565b90509295985092959850929598565b60006020828403121562000b89578081fd5b815160ff8116811462000b9a578182fd5b9392505050565b60006060820185835260206060818501528186518084526080860191508288019350845b8181101562000bed5762000bda855162000c82565b8352938301939183019160010162000bc5565b505084810360408601528551808252908201925081860190845b8181101562000c2f5762000c1c835162000c82565b8552938301939183019160010162000c07565b509298975050505050505050565b602081016003831062000c4c57fe5b91905290565b90815260200190565b6040518181016001600160401b038111828210171562000c7a57600080fd5b604052919050565b6001600160a01b031690565b6001600160a01b03811681146200089857600080fd5b60805160a05160601c60c05160e051610100516101205161014051610160516101805160601c6101a0516101c0516101e05160601c6102005160601c6102205160601c6102405160601c6102605160601c6102805160601c6102a05160601c6102c05160601c6102e05161030051610320516103405161036051610380516103a0516103c0516103e051613d6062000df2600039806107d052806108035280611d3d5280611ef55280611f795280612206528061231552806127ad528061287352806128f95280612955525080611053525080611010525080610fcd525080610f8a525080610f47525080610f04525080610ec1525080610e705250505050505050505080610dd55250806106575250806109cf5250806113045250806112e0525080610ac952508061143b52508061147d52508061145c5250806109ab5250806109355250613d606000f3fe608060405234801561001057600080fd5b50600436106101da5760003560e01c80636daccffa116101045780638d928af8116100a2578063d505accf11610071578063d505accf146103b5578063d5c096c4146103c8578063d73dd623146103db578063dd62ed3e146103ee576101da565b80638d928af81461038a57806395d89b4114610392578063a9059cbb1461039a578063aaabadc5146103ad576101da565b80637ecebe00116100de5780637ecebe001461033c578063851c1bb31461034f57806387ec681714610362578063893d20e814610375576101da565b80636daccffa1461030057806370a082311461030857806374f3b0091461031b576101da565b8063313ce5671161017c57806355c676281161014b57806355c67628146102bc5780636028bfd4146102c457806366188463146102e5578063679aefce146102f8576101da565b8063313ce567146102845780633644e5151461029957806338e9922e146102a157806338fff2d0146102b4576101da565b806316c38b3c116101b857806316c38b3c1461023d57806318160ddd146102525780631c0de0511461025a57806323b872dd14610271576101da565b806301ec954a146101df57806306fdde0314610208578063095ea7b31461021d575b600080fd5b6101f26101ed3660046138fe565b610401565b6040516101ff9190613b57565b60405180910390f35b61021061045e565b6040516101ff9190613c24565b61023061022b3660046135bb565b610513565b6040516101ff9190613b34565b61025061024b3660046136b2565b61052a565b005b6101f261053e565b610262610544565b6040516101ff93929190613b3f565b61023061027f366004613506565b61056d565b61028c610628565b6040516101ff9190613c98565b6101f261062d565b6102506102af366004613a1d565b61063c565b6101f2610655565b6101f2610679565b6102d76102d23660046136ea565b61067f565b6040516101ff929190613c77565b6102306102f33660046135bb565b6106b6565b6101f261071d565b6101f2610801565b6101f26103163660046134b2565b610825565b61032e6103293660046136ea565b61084d565b6040516101ff929190613b06565b6101f261034a3660046134b2565b610909565b6101f261035d36600461378d565b610931565b6102d76103703660046136ea565b610983565b61037d6109a9565b6040516101ff9190613ae5565b61037d6109cd565b6102106109f1565b6102306103a83660046135bb565b610a70565b61037d610a7d565b6102506103c3366004613546565b610a87565b61032e6103d63660046136ea565b610c11565b6102306103e93660046135bb565b610d34565b6101f26103fc3660046134ce565b610d77565b60006104158383610410610dd3565b610df7565b606061041f610e14565b905060008651600181111561043057fe5b14610447576104428686868685611091565b610454565b6104548686868685611106565b9695505050505050565b60038054604080516020601f60027fffffffffffffffffffffffffffffffffffffffffffffffffffffffffffffffff6101006001881615020190951694909404938401819004810282018101909252828152606093909290918301828280156105085780601f106104dd57610100808354040283529160200191610508565b820191906000526020600020905b8154815290600101906020018083116104eb57829003601f168201915b505050505090505b90565b600061052033848461116a565b5060015b92915050565b6105326111df565b61053b81611225565b50565b60025490565b60008060006105516112c1565b15925061055c6112de565b9150610566611302565b9050909192565b73ffffffffffffffffffffffffffffffffffffffff8316600081815260016020908152604080832033808552925282205491926105b89114806105b05750838210155b610197611326565b6105c3858585611334565b3373ffffffffffffffffffffffffffffffffffffffff86161480159061060957507fffffffffffffffffffffffffffffffffffffffffffffffffffffffffffffffff8114155b1561061b5761061b853385840361116a565b60019150505b9392505050565b601290565b6000610637611437565b905090565b6106446111df565b61064c6114d4565b61053b816114e9565b7f000000000000000000000000000000000000000000000000000000000000000090565b60075490565b600060606106958651610690610dd3565b611547565b6106aa8989898989898961155461165a6116bb565b97509795505050505050565b33600090815260016020908152604080832073ffffffffffffffffffffffffffffffffffffffff861684529091528120548083106106ff576106fa3385600061116a565b610713565b610713338561070e8487610dbd565b61116a565b5060019392505050565b600060606107296109cd565b73ffffffffffffffffffffffffffffffffffffffff1663f94d466861074c610655565b6040518263ffffffff1660e01b81526004016107689190613b57565b60006040518083038186803b15801561078057600080fd5b505afa158015610794573d6000803e3d6000fd5b505050506040513d6000823e601f3d908101601f191682016040526107bc91908101906135e6565b509150506107fb6107cb61053e565b6107f57f000000000000000000000000000000000000000000000000000000000000000084611857565b906119d1565b91505090565b7f000000000000000000000000000000000000000000000000000000000000000090565b73ffffffffffffffffffffffffffffffffffffffff1660009081526020819052604090205490565b6060808861089161085c6109cd565b73ffffffffffffffffffffffffffffffffffffffff163373ffffffffffffffffffffffffffffffffffffffff161460cd611326565b6108a661089c610655565b82146101f4611326565b60606108b0610e14565b90506108bc8882611a22565b60006060806108d08e8e8e8e8e8e8e611554565b9250925092506108e08d84611a76565b6108ea828561165a565b6108f4818561165a565b909550935050505b5097509795505050505050565b73ffffffffffffffffffffffffffffffffffffffff1660009081526005602052604090205490565b60007f000000000000000000000000000000000000000000000000000000000000000082604051602001610966929190613a6f565b604051602081830303815290604052805190602001209050919050565b600060606109948651610690610dd3565b6106aa89898989898989611b30611bd56116bb565b7f000000000000000000000000000000000000000000000000000000000000000090565b7f000000000000000000000000000000000000000000000000000000000000000090565b60048054604080516020601f60027fffffffffffffffffffffffffffffffffffffffffffffffffffffffffffffffff6101006001881615020190951694909404938401819004810282018101909252828152606093909290918301828280156105085780601f106104dd57610100808354040283529160200191610508565b6000610520338484611334565b6000610637611c36565b610a958442111560d1611326565b73ffffffffffffffffffffffffffffffffffffffff87166000908152600560209081526040808320549051909291610af9917f0000000000000000000000000000000000000000000000000000000000000000918c918c918c9188918d9101613b8c565b6040516020818303038152906040528051906020012090506000610b1c82611cbd565b9050600060018288888860405160008152602001604052604051610b439493929190613c06565b6020604051602081039080840390855afa158015610b65573d6000803e3d6000fd5b5050604051601f1901519150610bce905073ffffffffffffffffffffffffffffffffffffffff821615801590610bc657508b73ffffffffffffffffffffffffffffffffffffffff168273ffffffffffffffffffffffffffffffffffffffff16145b6101f8611326565b73ffffffffffffffffffffffffffffffffffffffff8b166000908152600560205260409020600185019055610c048b8b8b61116a565b5050505050505050505050565b60608088610c2061085c6109cd565b610c2b61089c610655565b6060610c35610e14565b9050610c3f61053e565b610ce55760006060610c538d8d8d8a611cd9565b91509150610c68620f424083101560cc611326565b610c766000620f4240611d76565b610c858b620f42408403611d76565b610c8f8184611bd5565b80610c98610dd3565b67ffffffffffffffff81118015610cae57600080fd5b50604051908082528060200260200182016040528015610cd8578160200160208202803683370190505b50955095505050506108fc565b610cef8882611a22565b6000606080610d038e8e8e8e8e8e8e611b30565b925092509250610d138c84611d76565b610d1d8285611bd5565b610d27818561165a565b90955093506108fc915050565b33600081815260016020908152604080832073ffffffffffffffffffffffffffffffffffffffff87168452909152812054909161052091859061070e9086611e33565b73ffffffffffffffffffffffffffffffffffffffff918216600090815260016020908152604080832093909416825291909152205490565b80610db981611e45565b5050565b6000610dcd838311156001611326565b50900390565b7f000000000000000000000000000000000000000000000000000000000000000090565b610e0f8184108015610e0857508183105b6064611326565b505050565b60606000610e20610dd3565b905060608167ffffffffffffffff81118015610e3b57600080fd5b50604051908082528060200260200182016040528015610e65578160200160208202803683370190505b5090508115610ead577f000000000000000000000000000000000000000000000000000000000000000081600081518110610e9c57fe5b602002602001018181525050610eb6565b91506105109050565b6001821115610ead577f000000000000000000000000000000000000000000000000000000000000000081600181518110610eed57fe5b6020026020010181815250506002821115610ead577f000000000000000000000000000000000000000000000000000000000000000081600281518110610f3057fe5b6020026020010181815250506003821115610ead577f000000000000000000000000000000000000000000000000000000000000000081600381518110610f7357fe5b6020026020010181815250506004821115610ead577f000000000000000000000000000000000000000000000000000000000000000081600481518110610fb657fe5b6020026020010181815250506005821115610ead577f000000000000000000000000000000000000000000000000000000000000000081600581518110610ff957fe5b6020026020010181815250506006821115610ead577f00000000000000000000000000000000000000000000000000000000000000008160068151811061103c57fe5b6020026020010181815250506007821115610ead577f00000000000000000000000000000000000000000000000000000000000000008160078151811061107f57fe5b60200260200101818152505091505090565b600061109d8583611a22565b6110be86606001518385815181106110b157fe5b6020026020010151611ed8565b606087015260006110d187878787611ee4565b90506110f0818487815181106110e357fe5b6020026020010151611f21565b90506110fb81611f2d565b979650505050505050565b60006111158660600151611f44565b60608701526111248583611a22565b61113886606001518386815181106110b157fe5b6060870152600061114b87878787611f68565b90506110fb8184868151811061115d57fe5b6020026020010151611fa5565b73ffffffffffffffffffffffffffffffffffffffff80841660008181526001602090815260408083209487168084529490915290819020849055517f8c5be1e5ebec7d5bd14f71427d1e84f3dd0314c0f7b2291e5b200ac8c7c3b925906111d2908590613b57565b60405180910390a3505050565b600061120e6000357fffffffff0000000000000000000000000000000000000000000000000000000016610931565b905061053b61121d8233611fb1565b610191611326565b8015611245576112406112366112de565b4210610193611326565b61125a565b61125a611250611302565b42106101a9611326565b600680547fffffffffffffffffffffffffffffffffffffffffffffffffffffffffffffff00168215151790556040517f9e3a5e37224532dea67b89face185703738a228a6e8a23dee546960180d3be64906112b6908390613b34565b60405180910390a150565b60006112cb611302565b42118061063757505060065460ff161590565b7f000000000000000000000000000000000000000000000000000000000000000090565b7f000000000000000000000000000000000000000000000000000000000000000090565b81610db957610db9816120d5565b73ffffffffffffffffffffffffffffffffffffffff831660009081526020819052604090205461136982821015610196611326565b61138d73ffffffffffffffffffffffffffffffffffffffff84161515610199611326565b73ffffffffffffffffffffffffffffffffffffffff8085166000908152602081905260408082208585039055918516815220546113ca9083611e33565b73ffffffffffffffffffffffffffffffffffffffff80851660008181526020819052604090819020939093559151908616907fddf252ad1be2c89b69c2b068fc378daa952ba7f163c4a11628f55a4df523b3ef90611429908690613b57565b60405180910390a350505050565b60007f00000000000000000000000000000000000000000000000000000000000000007f00000000000000000000000000000000000000000000000000000000000000007f00000000000000000000000000000000000000000000000000000000000000006114a4612142565b306040516020016114b9959493929190613bcd565b60405160208183030381529060405280519060200120905090565b6114e76114df6112c1565b610192611326565b565b6114fc64e8d4a5100082101560cb611326565b61151267016345785d8a000082111560ca611326565b60078190556040517fa9ba3ffe0b6c366b81232caab38605a0699ad5398d6cce76f91ee809e322dafc906112b6908390613b57565b610db98183146067611326565b60006060806115616112c1565b156115e5576115738760085487612146565b905060005b611580610dd3565b8110156115df576115c082828151811061159657fe5b60200260200101518983815181106115aa57fe5b6020026020010151610dbd90919063ffffffff16565b8882815181106115cc57fe5b6020908102919091010152600101611578565b50611631565b6115ed610dd3565b67ffffffffffffffff8111801561160357600080fd5b5060405190808252806020026020018201604052801561162d578160200160208202803683370190505b5090505b61163b8785612250565b909350915061164a87836122ba565b6008559750975097945050505050565b60005b611665610dd3565b811015610e0f5761169c83828151811061167b57fe5b602002602001015183838151811061168f57fe5b602002602001015161233a565b8382815181106116a857fe5b602090810291909101015260010161165d565b3330146117b75760003073ffffffffffffffffffffffffffffffffffffffff166000366040516116ec929190613a9f565b6000604051808303816000865af19150503d8060008114611729576040519150601f19603f3d011682016040523d82523d6000602084013e61172e565b606091505b50509050806000811461173d57fe5b60046000803e6000517fffffffff00000000000000000000000000000000000000000000000000000000167f43adbafb000000000000000000000000000000000000000000000000000000008114611799573d6000803e3d6000fd5b506020600460003e604060205260243d03602460403e601c3d016000f35b60606117c1610e14565b90506117cd8782611a22565b600060606117e48c8c8c8c8c8c8c8c63ffffffff16565b50915091506117f781848663ffffffff16565b8051601f1982018390526343adbafb7fffffffffffffffffffffffffffffffffffffffffffffffffffffffffffffffc08301526020027fffffffffffffffffffffffffffffffffffffffffffffffffffffffffffffffdc82016044820181fd5b80516000908190815b818110156118985761188e85828151811061187757fe5b602002602001015184611e3390919063ffffffff16565b9250600101611860565b50816118a957600092505050610524565b600082816118b7888561235a565b905060005b60ff8110156119c45760006118e5868a6000815181106118d857fe5b602002602001015161235a565b905060015b8681101561191e5761191461190e611908848d85815181106118d857fe5b8961235a565b8661237e565b91506001016118ea565b5083945061197e61195461193b611935868b61235a565b8461235a565b61194e6119488a8961235a565b8861235a565b90611e33565b61197961196b611965876001610dbd565b8561235a565b61194e6119088b6001611e33565b61237e565b9350848411156119a45760016119948587610dbd565b1161199f57506119c4565b6119bb565b60016119b08686610dbd565b116119bb57506119c4565b506001016118bc565b5090979650505050505050565b60006119e08215156004611326565b826119ed57506000610524565b670de0b6b3a764000083810290611a1090858381611a0757fe5b04146005611326565b828181611a1957fe5b04915050610524565b60005b611a2d610dd3565b811015610e0f57611a57838281518110611a4357fe5b60200260200101518383815181106118d857fe5b838281518110611a6357fe5b6020908102919091010152600101611a25565b73ffffffffffffffffffffffffffffffffffffffff8216600090815260208190526040902054611aab82821015610196611326565b73ffffffffffffffffffffffffffffffffffffffff831660009081526020819052604090208282039055600254611ae29083610dbd565b60025560405160009073ffffffffffffffffffffffffffffffffffffffff8516907fddf252ad1be2c89b69c2b068fc378daa952ba7f163c4a11628f55a4df523b3ef906111d2908690613b57565b6000606080611b3d6114d4565b6060611b4c8860085488612146565b905060005b611b59610dd3565b811015611ba257611b83828281518110611b6f57fe5b60200260200101518a83815181106115aa57fe5b898281518110611b8f57fe5b6020908102919091010152600101611b51565b5060006060611bb18a886123b1565b91509150611bbf8a82612409565b600855909c909b50909950975050505050505050565b60005b611be0610dd3565b811015610e0f57611c17838281518110611bf657fe5b6020026020010151838381518110611c0a57fe5b602002602001015161237e565b838281518110611c2357fe5b6020908102919091010152600101611bd8565b6000611c406109cd565b73ffffffffffffffffffffffffffffffffffffffff1663aaabadc56040518163ffffffff1660e01b815260040160206040518083038186803b158015611c8557600080fd5b505afa158015611c99573d6000803e3d6000fd5b505050506040513d601f19601f8201168201806040525081019061063791906137cd565b6000611cc7611437565b82604051602001610966929190613aaf565b60006060611ce56114d4565b6000611cf084612474565b9050611d0b6000826002811115611d0357fe5b1460ce611326565b6060611d168561248a565b9050611d258151610690610dd3565b611d3681611d31610e14565b611a22565b6000611d627f000000000000000000000000000000000000000000000000000000000000000083611857565b600881905599919850909650505050505050565b73ffffffffffffffffffffffffffffffffffffffff8216600090815260208190526040902054611da69082611e33565b73ffffffffffffffffffffffffffffffffffffffff8316600090815260208190526040902055600254611dd99082611e33565b60025560405173ffffffffffffffffffffffffffffffffffffffff8316906000907fddf252ad1be2c89b69c2b068fc378daa952ba7f163c4a11628f55a4df523b3ef90611e27908590613b57565b60405180910390a35050565b60008282016106218482101583611326565b600281511015611e545761053b565b600081600081518110611e6357fe5b602002602001015190506000600190505b8251811015610e0f576000838281518110611e8b57fe5b60200260200101519050611ece8173ffffffffffffffffffffffffffffffffffffffff168473ffffffffffffffffffffffffffffffffffffffff16106065611326565b9150600101611e74565b6000610621838361235a565b6000611eee6114d4565b60006104547f00000000000000000000000000000000000000000000000000000000000000008686868a606001516124a0565b6000610621838361237e565b6000610524611f3d600754612546565b839061256c565b600080611f5c600754846125ba90919063ffffffff16565b90506106218382610dbd565b6000611f726114d4565b60006104547f00000000000000000000000000000000000000000000000000000000000000008686868a60600151612614565b6000610621838361233a565b600073ba1ba1ba1ba1ba1ba1ba1ba1ba1ba1ba1ba1ba1b611fd06109a9565b73ffffffffffffffffffffffffffffffffffffffff1614158015611ff85750611ff88361269e565b1561203a576120056109a9565b73ffffffffffffffffffffffffffffffffffffffff163373ffffffffffffffffffffffffffffffffffffffff16149050610524565b612042611c36565b73ffffffffffffffffffffffffffffffffffffffff16639be2a8848484306040518463ffffffff1660e01b815260040161207e93929190613b60565b60206040518083038186803b15801561209657600080fd5b505afa1580156120aa573d6000803e3d6000fd5b505050506040513d601f19601f820116820180604052508101906120ce91906136ce565b9050610524565b7f08c379a0000000000000000000000000000000000000000000000000000000006000908152602060045260076024526642414c23000030600a808404818106603090810160081b95839006959095019082900491820690940160101b939093010160c81b604452606490fd5b4690565b606080612151610dd3565b67ffffffffffffffff8111801561216757600080fd5b50604051908082528060200260200182016040528015612191578160200160208202803683370190505b509050826121a0579050610621565b600080866000815181106121b057fe5b602002602001015190506000600190505b6121c9610dd3565b8110156122005760008882815181106121de57fe5b60200260200101519050828111156121f7578193508092505b506001016121c1565b5061222e7f0000000000000000000000000000000000000000000000000000000000000000888885896126d1565b83838151811061223a57fe5b6020908102919091010152509095945050505050565b60006060600061225f84612474565b9050600081600281111561226f57fe5b14156122895761227f858561272d565b92509250506122b3565b600181600281111561229757fe5b14156122a75761227f8585612804565b61227f8585612836565b505b9250929050565b6000805b6122c6610dd3565b81101561230f576122f08382815181106122dc57fe5b60200260200101518583815181106115aa57fe5b8482815181106122fc57fe5b60209081029190910101526001016122be565b506106217f000000000000000000000000000000000000000000000000000000000000000084611857565b60006123498215156004611326565b81838161235257fe5b049392505050565b600082820261062184158061237757508385838161237457fe5b04145b6003611326565b600061238d8215156004611326565b8261239a57506000610524565b8160018403816123a657fe5b046001019050610524565b6000606060006123c084612474565b905060018160028111156123d057fe5b14156123e05761227f85856128c0565b60028160028111156123ee57fe5b14156123fe5761227f858561293a565b6122b16101366120d5565b6000805b612415610dd3565b81101561230f5761245583828151811061242b57fe5b602002602001015185838151811061243f57fe5b6020026020010151611e3390919063ffffffff16565b84828151811061246157fe5b602090810291909101015260010161240d565b60008180602001905181019061052491906137e9565b60608180602001905181019061062191906138af565b6000806124ad8787611857565b90506124bf838786815181106115aa57fe5b8685815181106124cb57fe5b60200260200101818152505060006124e5888884896129fc565b90506124f78488878151811061243f57fe5b87868151811061250357fe5b60200260200101818152505061253a600161194e89898151811061252357fe5b602002602001015184610dbd90919063ffffffff16565b98975050505050505050565b6000670de0b6b3a7640000821061255e576000610524565b50670de0b6b3a76400000390565b600061257b8215156004611326565b8261258857506000610524565b670de0b6b3a7640000838102906125a290858381611a0757fe5b8260018203816125ae57fe5b04600101915050610524565b60008282026125d484158061237757508385838161237457fe5b806125e3576000915050610524565b670de0b6b3a76400007fffffffffffffffffffffffffffffffffffffffffffffffffffffffffffffffff82016125ae565b6000806126218787611857565b90506126338387878151811061243f57fe5b86868151811061263f57fe5b6020026020010181815250506000612659888884886129fc565b905061266b848888815181106115aa57fe5b87878151811061267757fe5b60200260200101818152505061253a6001612698838a89815181106115aa57fe5b90610dbd565b60006126c97f38e9922e00000000000000000000000000000000000000000000000000000000610931565b909114919050565b6000806126e0878787876129fc565b90506000818786815181106126f157fe5b602002602001015111612705576000612715565b612715828887815181106115aa57fe5b905061253a670de0b6b3a76400006107f58387612bb5565b600060606127396114d4565b6000612743610dd3565b905060008061275186612be1565b915091506127628382106064611326565b60608367ffffffffffffffff8111801561277b57600080fd5b506040519080825280602002602001820160405280156127a5578160200160208202803683370190505b5090506127df7f00000000000000000000000000000000000000000000000000000000000000008984866127d761053e565b600754612c03565b8183815181106127eb57fe5b6020908102919091010152919791965090945050505050565b60006060600061281384612cfb565b90506060612829868361282461053e565b612d11565b9196919550909350505050565b600060606128426114d4565b6060600061284f85612dc3565b915091506128608251610690610dd3565b61286c82611d31610e14565b60006128a47f0000000000000000000000000000000000000000000000000000000000000000888561289c61053e565b600754612ddb565b90506128b48282111560cf611326565b96919550909350505050565b600060608060006128d085612dc3565b915091506128e66128df610dd3565b8351611547565b6128f282611d31610e14565b600061292a7f0000000000000000000000000000000000000000000000000000000000000000888561292261053e565b600754613073565b90506128b48282101560d0611326565b6000606060008061294a85612be1565b9150915060006129877f000000000000000000000000000000000000000000000000000000000000000088848661297f61053e565b6007546132b2565b90506060612993610dd3565b67ffffffffffffffff811180156129a957600080fd5b506040519080825280602002602001820160405280156129d3578160200160208202803683370190505b509050818184815181106129e357fe5b6020908102919091010152929792965091945050505050565b600080612a0a86865161235a565b9050600085600081518110612a1b57fe5b602002602001015190506000612a398751886000815181106118d857fe5b905060015b8751811015612a8557612a6a612a64612a5d848b85815181106118d857fe5b8a5161235a565b8861233a565b9150612a7b88828151811061187757fe5b9250600101612a3e565b50612aac878681518110612a9557fe5b602002602001015183610dbd90919063ffffffff16565b91506000612ac3612abd888961235a565b8561237e565b9050612af582612aef8a8981518110612ad857fe5b6020026020010151846125ba90919063ffffffff16565b9061256c565b90506000612b0d612b0689876119d1565b8590611e33565b9050600080612b2d612b1f8b85611e33565b612aef8661194e8e806125ba565b905060005b60ff811015612ba557819250612b62612b548c6126988761194e87600261235a565b612aef8761194e86806125ba565b915082821115612b87576001612b788385610dbd565b11612b8257612ba5565b612b9d565b6001612b938484610dbd565b11612b9d57612ba5565b600101612b32565b509b9a5050505050505050505050565b6000828202612bcf84158061237757508385838161237457fe5b670de0b6b3a764000090049392505050565b60008082806020019051810190612bf89190613879565b909590945092505050565b600080612c108888611857565b90506000612c2c82612c2687612aef818b610dbd565b906125ba565b90506000805b8951811015612c6b57612c618a8281518110612c4a57fe5b602002602001015183611e3390919063ffffffff16565b9150600101612c32565b506000612c7a8b8b858c6129fc565b90506000612c8e828c8c815181106115aa57fe5b90506000612cb8848d8d81518110612ca257fe5b60200260200101516119d190919063ffffffff16565b90506000612cc582612546565b90506000612cd38a836125ba565b9050612ce8612ce182612546565b8590612bb5565b9f9e505050505050505050505050505050565b600081806020019051810190610621919061384c565b60606000612d1f84846119d1565b90506060855167ffffffffffffffff81118015612d3b57600080fd5b50604051908082528060200260200182016040528015612d65578160200160208202803683370190505b50905060005b8651811015612db957612d9a83888381518110612d8457fe5b6020026020010151612bb590919063ffffffff16565b828281518110612da657fe5b6020908102919091010152600101612d6b565b5095945050505050565b6060600082806020019051810190612bf89190613805565b600080612de88787611857565b90506000805b8751811015612e1057612e06888281518110612c4a57fe5b9150600101612dee565b506060865167ffffffffffffffff81118015612e2b57600080fd5b50604051908082528060200260200182016040528015612e55578160200160208202803683370190505b5090506000805b8951811015612f1c576000612e8d858c8481518110612e7757fe5b602002602001015161256c90919063ffffffff16565b9050612ec98b8381518110612e9e57fe5b6020026020010151612aef8c8581518110612eb557fe5b60200260200101518e86815181106115aa57fe5b848381518110612ed557fe5b602002602001018181525050612f11612f0a82868581518110612ef457fe5b60200260200101516125ba90919063ffffffff16565b8490611e33565b925050600101612e5c565b506060895167ffffffffffffffff81118015612f3757600080fd5b50604051908082528060200260200182016040528015612f61578160200160208202803683370190505b50905060005b8a51811015613038576000848281518110612f7e57fe5b60200260200101518411612f9457506000612fdc565b612fd9612fb3868481518110612fa657fe5b6020026020010151612546565b612aef878581518110612fc257fe5b602002602001015187610dbd90919063ffffffff16565b90505b6000612fe88a836125ba565b90506000613004612ff883612546565b8e8681518110612e7757fe5b9050613016818f86815181106115aa57fe5b85858151811061302257fe5b6020908102919091010152505050600101612f67565b5060006130458c83611857565b905061306361305c613057838961256c565b612546565b8a906125ba565b9c9b505050505050505050505050565b6000806130808787611857565b90506000805b87518110156130a85761309e888281518110612c4a57fe5b9150600101613086565b506060865167ffffffffffffffff811180156130c357600080fd5b506040519080825280602002602001820160405280156130ed578160200160208202803683370190505b5090506000805b895181101561318157600061310f858c8481518110612ca257fe5b905061314b8b838151811061312057fe5b60200260200101516107f58c858151811061313757fe5b60200260200101518e868151811061243f57fe5b84838151811061315757fe5b602002602001018181525050613176612f0a82868581518110612d8457fe5b9250506001016130f4565b506060895167ffffffffffffffff8111801561319c57600080fd5b506040519080825280602002602001820160405280156131c6578160200160208202803683370190505b50905060005b8a518110156132835760008482815181106131e357fe5b602002602001015184106131f957506000613227565b613224613214670de0b6b3a76400008785815181106115aa57fe5b612aef868886815181106115aa57fe5b90505b60006132338a836125ba565b9050600061324f61324383612546565b8e8681518110612d8457fe5b9050613261818f868151811061243f57fe5b85858151811061326d57fe5b60209081029190910101525050506001016131cc565b5060006132908c83611857565b90506130636132ab670de0b6b3a7640000612698848a6119d1565b8a90612bb5565b6000806132bf8888611857565b905060006132d582612c2687612aef818b611e33565b90506000805b89518110156132fd576132f38a8281518110612c4a57fe5b91506001016132db565b50600061330c8b8b858c6129fc565b9050600061331f8b8b81518110612a9557fe5b90506000613333848d8d81518110612ca257fe5b9050600061334082612546565b9050600061334e8a836125ba565b9050612ce861335c82612546565b859061256c565b803561052481613ced565b600082601f83011261337e578081fd5b813561339161338c82613ccd565b613ca6565b8181529150602080830190848101818402860182018710156133b257600080fd5b60005b848110156133d1578135845292820192908201906001016133b5565b505050505092915050565b600082601f8301126133ec578081fd5b81516133fa61338c82613ccd565b81815291506020808301908481018184028601820187101561341b57600080fd5b60005b848110156133d15781518452928201929082019060010161341e565b600082601f83011261344a578081fd5b813567ffffffffffffffff811115613460578182fd5b6134736020601f19601f84011601613ca6565b915080825283602082850101111561348a57600080fd5b8060208401602084013760009082016020015292915050565b80356002811061052457600080fd5b6000602082840312156134c3578081fd5b813561062181613ced565b600080604083850312156134e0578081fd5b82356134eb81613ced565b915060208301356134fb81613ced565b809150509250929050565b60008060006060848603121561351a578081fd5b833561352581613ced565b9250602084013561353581613ced565b929592945050506040919091013590565b600080600080600080600060e0888a031215613560578283fd5b873561356b81613ced565b9650602088013561357b81613ced565b95506040880135945060608801359350608088013560ff8116811461359e578384fd5b9699959850939692959460a0840135945060c09093013592915050565b600080604083850312156135cd578182fd5b82356135d881613ced565b946020939093013593505050565b6000806000606084860312156135fa578081fd5b835167ffffffffffffffff80821115613611578283fd5b818601915086601f830112613624578283fd5b815161363261338c82613ccd565b80828252602080830192508086018b828387028901011115613652578788fd5b8796505b8487101561367d57805161366981613ced565b845260019690960195928101928101613656565b508901519097509350505080821115613694578283fd5b506136a1868287016133dc565b925050604084015190509250925092565b6000602082840312156136c3578081fd5b813561062181613d0f565b6000602082840312156136df578081fd5b815161062181613d0f565b600080600080600080600060e0888a031215613704578081fd5b87359650602088013561371681613ced565b9550604088013561372681613ced565b9450606088013567ffffffffffffffff80821115613742578283fd5b61374e8b838c0161336e565b955060808a0135945060a08a0135935060c08a0135915080821115613771578283fd5b5061377e8a828b0161343a565b91505092959891949750929550565b60006020828403121561379e578081fd5b81357fffffffff0000000000000000000000000000000000000000000000000000000081168114610621578182fd5b6000602082840312156137de578081fd5b815161062181613ced565b6000602082840312156137fa578081fd5b815161062181613d1d565b600080600060608486031215613819578081fd5b835161382481613d1d565b602085015190935067ffffffffffffffff811115613840578182fd5b6136a1868287016133dc565b6000806040838503121561385e578182fd5b825161386981613d1d565b6020939093015192949293505050565b60008060006060848603121561388d578081fd5b835161389881613d1d565b602085015160409095015190969495509392505050565b600080604083850312156138c1578182fd5b82516138cc81613d1d565b602084015190925067ffffffffffffffff8111156138e8578182fd5b6138f4858286016133dc565b9150509250929050565b60008060008060808587031215613913578182fd5b843567ffffffffffffffff8082111561392a578384fd5b818701915061012080838a031215613940578485fd5b61394981613ca6565b905061395589846134a3565b81526139648960208501613363565b60208201526139768960408501613363565b6040820152606083013560608201526080830135608082015260a083013560a08201526139a68960c08501613363565b60c08201526139b88960e08501613363565b60e082015261010080840135838111156139d0578687fd5b6139dc8b82870161343a565b8284015250508096505060208701359150808211156139f9578384fd5b50613a068782880161336e565b949794965050505060408301359260600135919050565b600060208284031215613a2e578081fd5b5035919050565b6000815180845260208085019450808401835b83811015613a6457815187529582019590820190600101613a48565b509495945050505050565b9182527fffffffff0000000000000000000000000000000000000000000000000000000016602082015260240190565b6000828483379101908152919050565b7f190100000000000000000000000000000000000000000000000000000000000081526002810192909252602282015260420190565b73ffffffffffffffffffffffffffffffffffffffff91909116815260200190565b600060408252613b196040830185613a35565b8281036020840152613b2b8185613a35565b95945050505050565b901515815260200190565b92151583526020830191909152604082015260600190565b90815260200190565b92835273ffffffffffffffffffffffffffffffffffffffff918216602084015216604082015260600190565b95865273ffffffffffffffffffffffffffffffffffffffff94851660208701529290931660408501526060840152608083019190915260a082015260c00190565b94855260208501939093526040840191909152606083015273ffffffffffffffffffffffffffffffffffffffff16608082015260a00190565b93845260ff9290921660208401526040830152606082015260800190565b6000602080835283518082850152825b81811015613c5057858101830151858201604001528201613c34565b81811115613c615783604083870101525b50601f01601f1916929092016040019392505050565b600083825260406020830152613c906040830184613a35565b949350505050565b60ff91909116815260200190565b60405181810167ffffffffffffffff81118282101715613cc557600080fd5b604052919050565b600067ffffffffffffffff821115613ce3578081fd5b5060209081020190565b73ffffffffffffffffffffffffffffffffffffffff8116811461053b57600080fd5b801515811461053b57600080fd5b6003811061053b57600080fdfea264697066735822122014a5fbb719429ddb47ed86f6e1d6bd96b67bc78c618d8ee357ae7c46063e9b0e64736f6c63430007010033a2646970667358221220907ac3386d194cde076c762ea86b7731a4c8ebc5417277a2f0c4c43b558b8d2064736f6c63430007010033",
  "devdoc": {
    "kind": "dev",
    "methods": {
      "create(string,string,address[],uint256,uint256,address)": {
        "details": "Deploys a new `StablePool`."
      },
      "getPauseConfiguration()": {
        "details": "Returns the current `TemporarilyPausable` configuration that will be applied to Pools created by this factory. `pauseWindowDuration` will decrease over time until it reaches zero, at which point both it and `bufferPeriodDuration` will be zero forever, meaning deployed Pools will not be pausable."
      },
      "getVault()": {
        "details": "Returns the Vault's address."
      },
      "isPoolFromFactory(address)": {
        "details": "Returns true if `pool` was created by this factory."
      }
    },
    "version": 1
  },
  "userdoc": {
    "kind": "user",
    "methods": {},
    "version": 1
  },
  "storageLayout": {
    "storage": [
      {
        "astId": 7936,
        "contract": "contracts/pools/stable/StablePoolFactory.sol:StablePoolFactory",
        "label": "_isPoolFromFactory",
        "offset": 0,
        "slot": "0",
        "type": "t_mapping(t_address,t_bool)"
      }
    ],
    "types": {
      "t_address": {
        "encoding": "inplace",
        "label": "address",
        "numberOfBytes": "20"
      },
      "t_bool": {
        "encoding": "inplace",
        "label": "bool",
        "numberOfBytes": "1"
      },
      "t_mapping(t_address,t_bool)": {
        "encoding": "mapping",
        "key": "t_address",
        "label": "mapping(address => bool)",
        "numberOfBytes": "32",
        "value": "t_bool"
      }
    }
  }
}