{
  "address": "0x8B26d272F2533561FcBc402a06774d10cF5aD4eD",
  "abi": [
    {
      "inputs": [],
      "stateMutability": "nonpayable",
      "type": "constructor"
    },
    {
      "anonymous": false,
      "inputs": [
        {
          "indexed": true,
          "internalType": "address",
          "name": "token",
          "type": "address"
        }
      ],
      "name": "TokenCreated",
      "type": "event"
    },
    {
      "inputs": [
        {
          "internalType": "address",
          "name": "admin",
          "type": "address"
        },
        {
          "internalType": "string",
          "name": "name",
          "type": "string"
        },
        {
          "internalType": "string",
          "name": "symbol",
          "type": "string"
        },
        {
          "internalType": "uint8",
          "name": "decimals",
          "type": "uint8"
        }
      ],
      "name": "create",
      "outputs": [
        {
          "internalType": "address",
          "name": "",
          "type": "address"
        }
      ],
      "stateMutability": "nonpayable",
      "type": "function"
    },
    {
      "inputs": [
        {
          "internalType": "uint256",
          "name": "start",
          "type": "uint256"
        },
        {
          "internalType": "uint256",
          "name": "end",
          "type": "uint256"
        }
      ],
      "name": "getTokens",
      "outputs": [
        {
          "internalType": "address[]",
          "name": "",
          "type": "address[]"
        }
      ],
      "stateMutability": "view",
      "type": "function"
    },
    {
      "inputs": [],
      "name": "getTotalTokens",
      "outputs": [
        {
          "internalType": "uint256",
          "name": "",
          "type": "uint256"
        }
      ],
      "stateMutability": "view",
      "type": "function"
    }
  ],
  "transactionHash": "0x1549856b5d75e27a3fc13597e74115fe1410fdbb2214144088fd0b36e6254a60",
  "args": [],
  "solcInputHash": "9be518e37de930f4cb2c00751324c113",
  "bytecode": "0x608060405234801561001057600080fd5b5061210a806100206000396000f3fe60806040523480156200001157600080fd5b5060043610620000465760003560e01c8063494cfc6c146200004b578063ecbfd4b6146200007a578063f08b82e614620000a0575b600080fd5b620000626200005c3660046200074a565b620000b9565b604051620000719190620008ac565b60405180910390f35b620000916200008b3660046200069e565b620001c6565b60405162000071919062000831565b620000aa6200032c565b604051620000719190620009e4565b6060828210158015620000d95750620000d360006200033f565b83830311155b6200011b576040517f08c379a0000000000000000000000000000000000000000000000000000000008152600401620001129062000908565b60405180910390fd5b606083830367ffffffffffffffff811180156200013757600080fd5b5060405190808252806020026020018201604052801562000162578160200160208202803683370190505b50905060005b8151811015620001bc5762000181600082870162000343565b8282815181106200018e57fe5b73ffffffffffffffffffffffffffffffffffffffff9092166020928302919091019091015260010162000168565b5090505b92915050565b6000606060405180602001620001dc906200060e565b601f1982820381018352601f9091011660408190526200020790889088908890889060200162000852565b60408051601f1981840301815290829052620002279291602001620007fe565b60405160208183030381529060405290506000620002506000801b83805190602001206200036a565b9050620002738173ffffffffffffffffffffffffffffffffffffffff1662000379565b1562000283579150620003249050565b6000620002928180856200037f565b90508173ffffffffffffffffffffffffffffffffffffffff168173ffffffffffffffffffffffffffffffffffffffff1614620002ca57fe5b620002d760008262000455565b5060405173ffffffffffffffffffffffffffffffffffffffff8216907f2e2b3f61b70d2d131b2a807371103cc98d51adcaa5e9a8f9c32658ad8426e74e90600090a2925062000324915050565b949350505050565b60006200033a60006200033f565b905090565b5490565b8154600090620003579083106064620004e2565b620003638383620004f7565b9392505050565b60006200036383833062000532565b3b151590565b60008084471015620003bf576040517f08c379a000000000000000000000000000000000000000000000000000000000815260040162000112906200093f565b8251620003fa576040517f08c379a00000000000000000000000000000000000000000000000000000000081526004016200011290620009ad565b8383516020850187f5905073ffffffffffffffffffffffffffffffffffffffff811662000324576040517f08c379a0000000000000000000000000000000000000000000000000000000008152600401620001129062000976565b600062000463838362000573565b620004d957508154600180820184556000848152602080822090930180547fffffffffffffffffffffffff00000000000000000000000000000000000000001673ffffffffffffffffffffffffffffffffffffffff861690811790915585549082528286019093526040902091909155620001c0565b506000620001c0565b81620004f357620004f381620005a1565b5050565b60008260000182815481106200050957fe5b60009182526020909120015473ffffffffffffffffffffffffffffffffffffffff169392505050565b60008060ff60f81b8386866040516020016200055294939291906200079a565b60408051808303601f19018152919052805160209091012095945050505050565b73ffffffffffffffffffffffffffffffffffffffff1660009081526001919091016020526040902054151590565b7f08c379a0000000000000000000000000000000000000000000000000000000006000908152602060045260076024526642414c23000030600a808404818106603090810160081b95839006959095019082900491820690940160101b939093010160c81b604452606490fd5b6116b48062000a2183390190565b600082601f8301126200062d578081fd5b813567ffffffffffffffff8082111562000645578283fd5b6040516020601f19601f850116820101818110838211171562000666578485fd5b6040528281529250828483016020018610156200068257600080fd5b8260208601602083013760006020848301015250505092915050565b60008060008060808587031215620006b4578384fd5b843573ffffffffffffffffffffffffffffffffffffffff81168114620006d8578485fd5b9350602085013567ffffffffffffffff80821115620006f5578485fd5b62000703888389016200061c565b9450604087013591508082111562000719578384fd5b5062000728878288016200061c565b925050606085013560ff811681146200073f578182fd5b939692955090935050565b600080604083850312156200075d578182fd5b50508035926020909101359150565b6000815180845262000786816020860160208601620009ed565b601f01601f19169290920160200192915050565b7fff0000000000000000000000000000000000000000000000000000000000000094909416845260609290921b7fffffffffffffffffffffffffffffffffffffffff0000000000000000000000001660018401526015830152603582015260550190565b6000835162000812818460208801620009ed565b83519083019062000828818360208801620009ed565b01949350505050565b73ffffffffffffffffffffffffffffffffffffffff91909116815260200190565b600073ffffffffffffffffffffffffffffffffffffffff86168252608060208301526200088360808301866200076c565b82810360408401526200089781866200076c565b91505060ff8316606083015295945050505050565b6020808252825182820181905260009190848201906040850190845b81811015620008fc57835173ffffffffffffffffffffffffffffffffffffffff1683529284019291840191600101620008c8565b50909695505050505050565b6020808252600d908201527f4f55545f4f465f424f554e445300000000000000000000000000000000000000604082015260600190565b6020808252601c908201527f435245415445325f494e53554646494349454e545f42414c414e434500000000604082015260600190565b60208082526015908201527f435245415445325f4445504c4f595f4641494c45440000000000000000000000604082015260600190565b60208082526015908201527f435245415445325f42595445434f44455f5a45524f0000000000000000000000604082015260600190565b90815260200190565b60005b8381101562000a0a578181015183820152602001620009f0565b8381111562000a1a576000848401525b5050505056fe60806040523480156200001157600080fd5b50604051620016b4380380620016b4833981810160405260808110156200003757600080fd5b8151602083018051604051929492938301929190846401000000008211156200005f57600080fd5b9083019060208201858111156200007557600080fd5b82516401000000008111828201881017156200009057600080fd5b82525081516020918201929091019080838360005b83811015620000bf578181015183820152602001620000a5565b50505050905090810190601f168015620000ed5780820380516001836020036101000a031916815260200191505b50604052602001805160405193929190846401000000008211156200011157600080fd5b9083019060208201858111156200012757600080fd5b82516401000000008111828201881017156200014257600080fd5b82525081516020918201929091019080838360005b838110156200017157818101518382015260200162000157565b50505050905090810190601f1680156200019f5780820380516001836020036101000a031916815260200191505b5060405260209081015185519093508592508491620001c4916004918501906200034f565b508051620001da9060059060208401906200034f565b50506006805460ff1916601217905550620001f58162000238565b620002026000856200024e565b6200022e7f9f2df0fed2c77648de5860a4cc508cd0818c85b8b8a1ab4ceeef8d981c8956a6856200024e565b50505050620003eb565b6006805460ff191660ff92909216919091179055565b6200025a82826200025e565b5050565b6000828152602081815260409091206200028391839062000aad620002c5821b17901c565b156200025a5760405133906001600160a01b0383169084907f2f8788117e7eff1d82e926ec794901d17c78024a50270940304540a733656f0d90600090a45050565b6000620002d383836200032e565b6200032457508154600180820184556000848152602080822090930180546001600160a01b0319166001600160a01b0386169081179091558554908252828601909352604090209190915562000328565b5060005b92915050565b6001600160a01b031660009081526001919091016020526040902054151590565b828054600181600116156101000203166002900490600052602060002090601f016020900481019282601f106200039257805160ff1916838001178555620003c2565b82800160010185558215620003c2579182015b82811115620003c2578251825591602001919060010190620003a5565b50620003d0929150620003d4565b5090565b5b80821115620003d05760008155600101620003d5565b6112b980620003fb6000396000f3fe608060405234801561001057600080fd5b506004361061018d5760003560e01c806370a08231116100e3578063a457c2d71161008c578063d539139311610066578063d539139314610587578063d547741f1461058f578063dd62ed3e146105c85761018d565b8063a457c2d7146104f8578063a9059cbb14610531578063ca15c8731461056a5761018d565b806391d14854116100bd57806391d14854146104af57806395d89b41146104e8578063a217fddf146104f05761018d565b806370a08231146103f757806379cc67901461042a5780639010d07c146104635761018d565b80632f2ff15d11610145578063395093511161011f578063395093511461036857806340c10f19146103a157806342966c68146103da5761018d565b80632f2ff15d146102d6578063313ce5671461031157806336568abe1461032f5761018d565b806318160ddd1161017657806318160ddd1461025c57806323b872dd14610276578063248a9ca3146102b95761018d565b806306fdde0314610192578063095ea7b31461020f575b600080fd5b61019a610603565b6040805160208082528351818301528351919283929083019185019080838360005b838110156101d45781810151838201526020016101bc565b50505050905090810190601f1680156102015780820380516001836020036101000a031916815260200191505b509250505060405180910390f35b6102486004803603604081101561022557600080fd5b5073ffffffffffffffffffffffffffffffffffffffff81351690602001356106b7565b604080519115158252519081900360200190f35b6102646106ce565b60408051918252519081900360200190f35b6102486004803603606081101561028c57600080fd5b5073ffffffffffffffffffffffffffffffffffffffff8135811691602081013590911690604001356106d4565b610264600480360360208110156102cf57600080fd5b5035610735565b61030f600480360360408110156102ec57600080fd5b508035906020013573ffffffffffffffffffffffffffffffffffffffff1661074a565b005b610319610780565b6040805160ff9092168252519081900360200190f35b61030f6004803603604081101561034557600080fd5b508035906020013573ffffffffffffffffffffffffffffffffffffffff16610789565b6102486004803603604081101561037e57600080fd5b5073ffffffffffffffffffffffffffffffffffffffff81351690602001356107b7565b61030f600480360360408110156103b757600080fd5b5073ffffffffffffffffffffffffffffffffffffffff81351690602001356107fa565b61030f600480360360208110156103f057600080fd5b5035610899565b6102646004803603602081101561040d57600080fd5b503573ffffffffffffffffffffffffffffffffffffffff166108a6565b61030f6004803603604081101561044057600080fd5b5073ffffffffffffffffffffffffffffffffffffffff81351690602001356108ce565b6104866004803603604081101561047957600080fd5b5080359060200135610904565b6040805173ffffffffffffffffffffffffffffffffffffffff9092168252519081900360200190f35b610248600480360360408110156104c557600080fd5b508035906020013573ffffffffffffffffffffffffffffffffffffffff16610923565b61019a61093b565b6102646109ba565b6102486004803603604081101561050e57600080fd5b5073ffffffffffffffffffffffffffffffffffffffff81351690602001356109bf565b6102486004803603604081101561054757600080fd5b5073ffffffffffffffffffffffffffffffffffffffff8135169060200135610a05565b6102646004803603602081101561058057600080fd5b5035610a12565b610264610a29565b61030f600480360360408110156105a557600080fd5b508035906020013573ffffffffffffffffffffffffffffffffffffffff16610a4d565b610264600480360360408110156105de57600080fd5b5073ffffffffffffffffffffffffffffffffffffffff81358116916020013516610a75565b60048054604080516020601f60027fffffffffffffffffffffffffffffffffffffffffffffffffffffffffffffffff6101006001881615020190951694909404938401819004810282018101909252828152606093909290918301828280156106ad5780601f10610682576101008083540402835291602001916106ad565b820191906000526020600020905b81548152906001019060200180831161069057829003601f168201915b5050505050905090565b60006106c4338484610b35565b5060015b92915050565b60035490565b60006106e1848484610bec565b73ffffffffffffffffffffffffffffffffffffffff841660009081526002602090815260408083203380855292529091205461072b918691610726908661019e610d17565b610b35565b5060019392505050565b60009081526020819052604090206002015490565b6000828152602081905260409020600201546107729061076a9033610923565b6101a6610d2d565b61077c8282610d3b565b5050565b60065460ff1690565b6107ad73ffffffffffffffffffffffffffffffffffffffff821633146101a8610d2d565b61077c8282610da1565b33600081815260026020908152604080832073ffffffffffffffffffffffffffffffffffffffff8716845290915281205490916106c49185906107269086610e07565b6108247f9f2df0fed2c77648de5860a4cc508cd0818c85b8b8a1ab4ceeef8d981c8956a633610923565b61088f57604080517f08c379a000000000000000000000000000000000000000000000000000000000815260206004820152600a60248201527f4e4f545f4d494e54455200000000000000000000000000000000000000000000604482015290519081900360640190fd5b61077c8282610e19565b6108a33382610eee565b50565b73ffffffffffffffffffffffffffffffffffffffff1660009081526001602052604090205490565b60006108e8826101a16108e18633610a75565b9190610d17565b90506108f5833383610b35565b6108ff8383610eee565b505050565b600082815260208190526040812061091c9083610fd9565b9392505050565b600082815260208190526040812061091c9083610ff5565b60058054604080516020601f60027fffffffffffffffffffffffffffffffffffffffffffffffffffffffffffffffff6101006001881615020190951694909404938401819004810282018101909252828152606093909290918301828280156106ad5780601f10610682576101008083540402835291602001916106ad565b600081565b33600081815260026020908152604080832073ffffffffffffffffffffffffffffffffffffffff8716845290915281205490916106c4918590610726908661019f610d17565b60006106c4338484610bec565b60008181526020819052604081206106c890611023565b7f9f2df0fed2c77648de5860a4cc508cd0818c85b8b8a1ab4ceeef8d981c8956a681565b6000828152602081905260409020600201546107ad90610a6d9033610923565b6101a7610d2d565b73ffffffffffffffffffffffffffffffffffffffff918216600090815260026020908152604080832093909416825291909152205490565b6000610ab98383610ff5565b610b2d57508154600180820184556000848152602080822090930180547fffffffffffffffffffffffff00000000000000000000000000000000000000001673ffffffffffffffffffffffffffffffffffffffff8616908117909155855490825282860190935260409020919091556106c8565b5060006106c8565b610b5973ffffffffffffffffffffffffffffffffffffffff8416151561019c610d2d565b610b7d73ffffffffffffffffffffffffffffffffffffffff8316151561019d610d2d565b73ffffffffffffffffffffffffffffffffffffffff808416600081815260026020908152604080832094871680845294825291829020859055815185815291517f8c5be1e5ebec7d5bd14f71427d1e84f3dd0314c0f7b2291e5b200ac8c7c3b9259281900390910190a3505050565b610c1073ffffffffffffffffffffffffffffffffffffffff84161515610198610d2d565b610c3473ffffffffffffffffffffffffffffffffffffffff83161515610199610d2d565b610c3f8383836108ff565b73ffffffffffffffffffffffffffffffffffffffff8316600090815260016020526040902054610c7290826101a0610d17565b73ffffffffffffffffffffffffffffffffffffffff8085166000908152600160205260408082209390935590841681522054610cae9082610e07565b73ffffffffffffffffffffffffffffffffffffffff80841660008181526001602090815260409182902094909455805185815290519193928716927fddf252ad1be2c89b69c2b068fc378daa952ba7f163c4a11628f55a4df523b3ef92918290030190a3505050565b6000610d268484111583610d2d565b5050900390565b8161077c5761077c81611027565b6000828152602081905260409020610d539082610aad565b1561077c57604051339073ffffffffffffffffffffffffffffffffffffffff83169084907f2f8788117e7eff1d82e926ec794901d17c78024a50270940304540a733656f0d90600090a45050565b6000828152602081905260409020610db99082611094565b1561077c57604051339073ffffffffffffffffffffffffffffffffffffffff83169084907ff6391f5c32d9c69d2a47ea670b442974b53935d1edc7fd64eb21e047a839171b90600090a45050565b600082820161091c8482101583610d2d565b610e3d73ffffffffffffffffffffffffffffffffffffffff8316151561019a610d2d565b610e49600083836108ff565b600354610e569082610e07565b60035573ffffffffffffffffffffffffffffffffffffffff8216600090815260016020526040902054610e899082610e07565b73ffffffffffffffffffffffffffffffffffffffff831660008181526001602090815260408083209490945583518581529351929391927fddf252ad1be2c89b69c2b068fc378daa952ba7f163c4a11628f55a4df523b3ef9281900390910190a35050565b610f1273ffffffffffffffffffffffffffffffffffffffff8316151561019b610d2d565b610f1e826000836108ff565b73ffffffffffffffffffffffffffffffffffffffff8216600090815260016020526040902054610f5190826101a1610d17565b73ffffffffffffffffffffffffffffffffffffffff8316600090815260016020526040902055600354610f84908261123b565b60035560408051828152905160009173ffffffffffffffffffffffffffffffffffffffff8516917fddf252ad1be2c89b69c2b068fc378daa952ba7f163c4a11628f55a4df523b3ef9181900360200190a35050565b8154600090610feb9083106064610d2d565b61091c8383611249565b73ffffffffffffffffffffffffffffffffffffffff1660009081526001919091016020526040902054151590565b5490565b7f08c379a0000000000000000000000000000000000000000000000000000000006000908152602060045260076024526642414c23000030600a808404818106603090810160081b95839006959095019082900491820690940160101b939093010160c81b604452606490fd5b73ffffffffffffffffffffffffffffffffffffffff8116600090815260018301602052604081205480156112315783547fffffffffffffffffffffffffffffffffffffffffffffffffffffffffffffffff80830191908101906000908790839081106110fc57fe5b600091825260209091200154875473ffffffffffffffffffffffffffffffffffffffff9091169150819088908590811061113257fe5b600091825260208083209190910180547fffffffffffffffffffffffff00000000000000000000000000000000000000001673ffffffffffffffffffffffffffffffffffffffff9485161790559183168152600189810190925260409020908401905586548790806111a057fe5b6000828152602080822083017fffffffffffffffffffffffffffffffffffffffffffffffffffffffffffffffff90810180547fffffffffffffffffffffffff000000000000000000000000000000000000000016905590920190925573ffffffffffffffffffffffffffffffffffffffff881682526001898101909152604082209190915594506106c89350505050565b60009150506106c8565b600061091c83836001610d17565b600082600001828154811061125a57fe5b60009182526020909120015473ffffffffffffffffffffffffffffffffffffffff16939250505056fea2646970667358221220c07e82c3e3c9994106db119c7cfd3b0f17217311542f8b4be57e7e5b98371afb64736f6c63430007010033a26469706673582212201b63377e846cf419a6c1536ca88a66b5962869b87662f2e6845a1722a7fa0be664736f6c63430007010033",
  "devdoc": {
    "kind": "dev",
    "methods": {},
    "version": 1
  },
  "userdoc": {
    "kind": "user",
    "methods": {},
    "version": 1
  },
  "storageLayout": {
    "storage": [
      {
        "astId": 15460,
        "contract": "contracts/test/TokenFactory.sol:TokenFactory",
        "label": "_tokens",
        "offset": 0,
        "slot": "0",
        "type": "t_struct(AddressSet)4722_storage"
      }
    ],
    "types": {
      "t_address": {
        "encoding": "inplace",
        "label": "address",
        "numberOfBytes": "20"
      },
      "t_array(t_address)dyn_storage": {
        "base": "t_address",
        "encoding": "dynamic_array",
        "label": "address[]",
        "numberOfBytes": "32"
      },
      "t_mapping(t_address,t_uint256)": {
        "encoding": "mapping",
        "key": "t_address",
        "label": "mapping(address => uint256)",
        "numberOfBytes": "32",
        "value": "t_uint256"
      },
      "t_struct(AddressSet)4722_storage": {
        "encoding": "inplace",
        "label": "struct EnumerableSet.AddressSet",
        "members": [
          {
            "astId": 4717,
            "contract": "contracts/test/TokenFactory.sol:TokenFactory",
            "label": "_values",
            "offset": 0,
            "slot": "0",
            "type": "t_array(t_address)dyn_storage"
          },
          {
            "astId": 4721,
            "contract": "contracts/test/TokenFactory.sol:TokenFactory",
            "label": "_indexes",
            "offset": 0,
            "slot": "1",
            "type": "t_mapping(t_address,t_uint256)"
          }
        ],
        "numberOfBytes": "64"
      },
      "t_uint256": {
        "encoding": "inplace",
        "label": "uint256",
        "numberOfBytes": "32"
      }
    }
  }
}